:1000000019C033C032C031C030C02FC02EC02DC087
:100010002CC02BC02AC029C028C027C026C025C09C
:1000200024C023C022C021C020C01FC01EC01DC0CC
:100030001CC01BC011241FBECFEFD4E0DEBFCDBF5C
:1000400011E0A0E0B1E0E8E9F1E002C005900D9216
:10005000AC30B107D9F711E0ACE0B1E001C01D92BE
:10006000A331B107E1F78ED095C0CACF8091BC0013
:1000700087FF87C08091B90090E0887F90708832B8
:10008000910509F447C089329105A4F480319105A6
:1000900051F1813191053CF4009709F46CC0089747
:1000A00009F06FC020C08831910561F1809709F097
:1000B00068C043C08034910519F1813491053CF446
:1000C00080339105D1F1C89709F05BC036C0803507
:1000D0009105B1F18835910509F447C0883491053F
:1000E00009F04FC044C010920D0110920C01809194
:1000F0000F01882311F482E001C083E08093BB00EC
:1001000084EC36C0809100018093BB0081E0809335
:100110000D01F6CF90910D019C3058F4E92FF0E0DD
:10012000E050FF4F80818093BB009F5F90930D0153
:10013000E7CF81E080930F011AC01092BC0017C076
:1001400080910C019091BB00E82FF0E0E05FFE4F42
:1001500090838F5F80930C01833090F284E88093CA
:10016000BC0083E080930C01089510920F0184EA93
:100170008093BC00089584ED8093BC0084EA809352
:10018000BC0008958AE08093B80084E68093BC00A8
:080190006DDFFECFF894FFCFF4
:0C0198000102030405060708090A0B0C0D
:00000001FF
