:1000000019C033C032C031C030C02FC02EC02DC087
:100010002CC02BC02AC029C028C027C026C025C09C
:1000200024C023C022C021C020C01FC01EC01DC0CC
:100030001CC01BC011241FBECFEFD4E0DEBFCDBF5C
:1000400011E0A0E0B1E0E0E6F1E002C005900D9221
:10005000A430B107D9F711E0A4E0B1E001C01D92CE
:10006000A331B107E1F772D079C0CACF8091BC004B
:1000700087FF6BC08091B90090E0887F90708838CE
:10008000910509F45BC08938910594F48036910597
:1000900021F18136910524F4892B09F453C0089588
:1000A0008836910579F18038910509F04EC01BC062
:1000B000883B910599F1893B910544F4803A91057B
:1000C000E9F1883A910509F040C020C0803C9105D3
:1000D000A9F1883C9105C9F531C084EC8093BC003E
:1000E000109204010895809104019091BB00E82FC3
:1000F000F0E0E95FFE4F90838F5F809304018C30C6
:10010000E8F01AC081E08093060118C081E0809376
:100110000501809100018093BB0010C08091050112
:10012000E82FF0E0E050FF4F90819093BB008F5F8D
:1001300080930501833010F084E801C084EC809343
:10014000BC00089584ED8093BC00089582E0809304
:10015000BA0084E48093BC0089DFFECFF894FFCF1F
:0401600012345600FF
:00000001FF
